:020000040800F2
:10000000002000206D520008B5510008B7510008CB
:1000100000000000000000000000000000000000E0
:10002000000000000000000000000000B9510008BE
:100030000000000000000000BB510008BD51000896
:10004000BD520008BD520008BD520008BD52000854
:10005000BD520008BD520008BD520008BD52000844
:1000600000000000C5510008BD520008BD52000844
:10007000BD520008BD52000800000000BD5200083B
:100080000000000000000000000000000000000070
:10009000BD52000800000000BD520008BD5200081B
:1000A00000000000BD520008000000000000000039
:1000B000BD520008BD520008000000000000000012
:1000C00010B5064C2378002B07D1054B002B02D02E
:1000D000044800E000BF0123237010BDE0010020B0
:1000E0000000000020740008044B10B5002B03D062
:1000F0000349044800E000BF10BDC04600000000F6
:10010000E401002020740008002243088B4274D3CD
:1001100003098B425FD3030A8B4244D3030B8B4208
:1001200028D3030C8B420DD3FF22090212BA030C11
:100130008B4202D31212090265D0030B8B4219D3F2
:1001400000E0090AC30B8B4201D3CB03C01A524112
:10015000830B8B4201D38B03C01A5241430B8B425A
:1001600001D34B03C01A5241030B8B4201D30B0343
:10017000C01A5241C30A8B4201D3CB02C01A52416A
:10018000830A8B4201D38B02C01A5241430A8B422D
:1001900001D34B02C01A5241030A8B4201D30B0216
:1001A000C01A5241CDD2C3098B4201D3CB01C01A30
:1001B000524183098B4201D38B01C01A524143093A
:1001C0008B4201D34B01C01A524103098B4201D328
:1001D0000B01C01A5241C3088B4201D3CB00C01A95
:1001E000524183088B4201D38B00C01A524143080D
:1001F0008B4201D34B00C01A5241411A00D2014632
:10020000524110467047FFE701B5002000F006F8A4
:1002100002BDC0460029F7D076E770477047C04658
:10022000002B11D1002A0FD1002900D1002802D0C3
:100230000021C943081C07B4024802A140180290DB
:1002400003BDC046D9FFFFFF03B4684601B502985D
:1002500000F006F8019B9E4602B00CBC7047C046F9
:10026000F0B54F464646D646C0B5040082B00D00F4
:10027000914698468B422FD82CD04146484600F0F4
:100280009DFA29000600200000F098FA331A9C46D7
:10029000203B9A4600D576E04B46524693401F00DD
:1002A0004B46624693401E00AF4228D825D05346A5
:1002B000A41BBD41002B00DA7BE00022002300924A
:1002C00001930123524693400193012362469340D8
:1002D000009318E08242D0D90022002300920193BB
:1002E0000A9B002B01D01C605D600098019902B050
:1002F0001CBC90469946A246F0BDA342D7D9002225
:100300000023009201936346002BE9D0FB07984637
:10031000414672080A437B0866460EE0AB4201D1B3
:10032000A2420CD8A41A9D41012024196D4100213C
:10033000013E24184D41002E06D0AB42EED9013EBD
:1003400024196D41002EF8D10098019953460019E7
:100350006941002B23DB2B005246D3402A00644620
:10036000E2401C0053461500002B2DDB26005746AB
:10037000BE40330026006746BE403200801A9941D5
:1003800000900191ACE7624620239B1A4A46DA406E
:100390006146130042468A4017001F4380E76246C9
:1003A00020239B1A2A0066469A402300F3401343F9
:1003B000D4E76246202300219B1A0022009101927B
:1003C0000122DA40019280E72023624626009B1A30
:1003D000DE402F00B0466646B74046463B003343FA
:1003E000C8E7C046F0B54E4657464546DE46E0B53E
:1003F00043025B0A450083B00F1C99462D0EC60FC1
:10040000002D57D0FF2D24D08020DB00C0041843DE
:10041000002381469A469B467F3D7C027A00FB0F73
:10042000640A120E984623D0FF2A4BD0E3008024A2
:100430000020E4047F3A1C43AD186B1C474601932F
:10044000534677403A000F2B48D87D499B00CB5844
:100450009F46002B00D085E008339A46063B9B461A
:100460007C027A00FB0FFF25640A120E9846DBD14E
:10047000002C00D090E0524601231A4392460120FE
:10048000DBE74C4658461700022824D0032800D149
:10049000CFE00022002301284DD15802D205400AA6
:1004A000FF071043384303B03CBC90469946A24630
:1004B000AB46F0BD002B5BD104239A46033B0025DD
:1004C0009B46AAE7FF35002C60D1524602231A430F
:1004D00092460220B1E7FF220023DEE74B461B0CC9
:1004E0009C464B462604360C180461463300220C09
:1004F0006446000C43434E435043544380191A0C46
:100500001218964203D9802149028C4664441B0488
:100510001B0C1004C01883015E1EB341800E1843EB
:10052000130C1B199B0103431C00230179D50123E4
:1005300062081C401443019A7F32002A4DDD630794
:1005400004D00F232340042B00D00434230103D50F
:100550003C4B019A1C408032FE2ABCDCA3015B0AA2
:10056000D2B29AE70C239A46093BFF259B4654E7F3
:10057000180000F005F94A46431F76259A400023EB
:100580006D4291462D1A9A469B4646E752460323F2
:100590001A439246032050E7200000F0F1F8431F71
:1005A0002D1A9C40763D002047E780230027DB037F
:1005B000FF2272E7424666E74C463200584662E741
:1005C00080234A46DB031A4222D01C4220D1234317
:1005D0005B025B0A4746FF225FE701239A1A1B2A48
:1005E00021DC23000199D3409E318C401A00230066
:1005F0005C1EA34113435A0704D00F221A40042A59
:1006000000D004335A0111D49B015B0A002244E755
:1006100080234A46DB0313435B025B0A3700FF2259
:100620003BE7019587E70022002336E701220023FC
:1006300033E78023DB0323435B025B0AFF222CE7C3
:10064000A4740008FFFFFFF770B500283DD0C31762
:10065000C5185D40C40F280000F092F89E22121ABF
:10066000962A07DCD2B2082833DD083885406802B4
:10067000400A23E0992A0BDD052329001B1AD940E3
:1006800003001B339D402B005D1EAB4119430D0041
:10069000052801DD431F9D402B000F490B406E07CD
:1006A00009D00F263540042D05D004335D0102D555
:1006B0009F220B40121A9B01580AD2B24002D20567
:1006C000400AE4071043204370BD002400220020AC
:1006D000F4E76802400AF1E7FFFFFFFB4100090E63
:1006E0004B1C70B5DBB24602750AC40F012B14DD3A
:1006F000E0239B006D07360BCB1800210A0D280064
:1007000012051C4D32435B052A405B0813435B0016
:10071000E4075B082343190070BD002914D1002DA4
:100720001ED0280000F02CF80A281CDC0B232A001D
:100730001B1ADA40030015339D400F4B12031B1A9E
:100740005B05160B5B0DD8E7002D06D0320B80261B
:1007500036036D071643094BCFE7084B0026CCE75D
:1007600000230026C9E703002A000B3B9A4000251E
:10077000E3E7C046FFFF0F8089030000FF0700008A
:100780001C2101231B04984201D3000C10391B0AC1
:10079000984201D3000A08391B09984201D3000985
:1007A000043902A2105C40187047C04604030202DC
:1007B00001010101000000000000000010B5002947
:1007C00003D1FFF7DDFF203002E0081CFFF7D8FF60
:1007D00010BDC0460023C25C0133002AFBD1581E65
:1007E0007047000002B4714649084900095C49009D
:1007F0008E4402BC7047C04603460B437FD40022A0
:1008000043088B4274D303098B425FD3030A8B42A4
:1008100044D3030B8B4228D3030C8B420DD3FF220E
:10082000090212BA030C8B4202D31212090265D0DC
:10083000030B8B4219D300E0090AC30B8B4201D38F
:10084000CB03C01A5241830B8B4201D38B03C01AD6
:100850005241430B8B4201D34B03C01A5241030B4D
:100860008B4201D30B03C01A5241C30A8B4201D3FE
:10087000CB02C01A5241830A8B4201D38B02C01AA9
:100880005241430A8B4201D34B02C01A5241030A20
:100890008B4201D30B02C01A5241CDD2C3098B4205
:1008A00001D3CB01C01A524183098B4201D38B0182
:1008B000C01A524143098B4201D34B01C01A524125
:1008C00003098B4201D30B01C01A5241C3088B426A
:1008D00001D3CB00C01A524183088B4201D38B0055
:1008E000C01A524143088B4201D34B00C01A5241F7
:1008F000411A00D201465241104670475DE0CA0FCE
:1009000000D04942031000D34042534000229C468D
:1009100003098B422DD3030A8B4212D3FC22890197
:1009200012BA030A8B420CD3890192118B4208D36D
:10093000890192118B4204D389013AD0921100E0CF
:100940008909C3098B4201D3CB01C01A52418309E3
:100950008B4201D38B01C01A524143098B4201D310
:100960004B01C01A524103098B4201D30B01C01A3B
:100970005241C3088B4201D3CB00C01A52418308B5
:100980008B4201D38B00C01A5241D9D243088B420B
:1009900001D34B00C01A5241411A00D201466346AE
:1009A00052415B10104601D34042002B00D5494212
:1009B000704763465B1000D3404201B50020FFF74B
:1009C0002DFC02BD0029F8D016E770478446101CA4
:1009D00062468C46191C634600E0C0461FB500F015
:1009E000F1FE002801D40021C8421FBD10B500F05F
:1009F00049FE4042013010BD10B500F0E3FE002872
:100A000001DB002010BD012010BDC04610B500F074
:100A1000D9FE002801DD002010BD012010BDC04618
:100A200010B500F06BFE002801DC002010BD012095
:100A300010BDC04610B500F061FE002801DA0020AC
:100A400010BD012010BDC046F0B54F464646D64603
:100A50000C000903C0B5490A470F5E0039431F0364
:100A6000DB0F9C4665007B0A570F1F436D0DE40F9B
:100A7000760DA146C000B846D200AB1B64457BD0C2
:100A8000002B5FDD002E00D0A4E03E00164300D115
:100A900012E15E1E002E00D09EE1871A4346B84246
:100AA00080410125C91A4042091A0B0200D431E1E4
:100AB00049024E0A002E00D16EE13000FFF760FEC1
:100AC0000300083B1F2B00DD61E120223900D21A10
:100AD0009E40D1409F400E439D4200DD51E15D1B91
:100AE0006B1C1F2B00DD7CE12021C91A3D0030006A
:100AF0008F408840DD40791E8F4131000722284316
:100B0000D940002507433A40002A09D00F233B4033
:100B1000042B05D03B1DBB42BF417F42C9191F00BA
:100B20000B0200D426E26A1CC64B55056D0D9A4295
:100B300000D106E1C44AFF080A40530752023B4372
:100B4000120B8EE0002B00D0B8E06B1C5B055B0D38
:100B5000012B00DC30E1871A4346B842B641CB1A7C
:100B600076429E1B330200D54CE13B003343A1D1BA
:100B700000220024002570E0002B00DCE5E0002EC0
:100B800000D183E0AF4EB54260D0802636043743B3
:100B9000B846382B00DC3EE1434613431F007A1E63
:100BA00097413F1887428041404209180B0200D408
:100BB000B0E0A44B01359D4200D1C3E0A24A7B08BE
:100BC0000A4001210F401F435108D30707221F434A
:100BD0003A4099E79B4EB54238D0802636043743D9
:100BE000B846382B00DDDCE01F2B00DC30E11E00B6
:100BF0004746203EF740BC46202B04D04026F31A3F
:100C000046469E403243170063467A1E97411F4373
:100C1000CCE0002B00D104E24346134300D159E15C
:100C20004B07C00818438023C9081B03194208D08A
:100C30004546ED081D4204D14346D00859070843F4
:100C40002900420FC9007F4D1143C0004B07CA085D
:100C50007C49C00803438D4268D012036D05120B16
:100C60006D0D002112031800130B0A0D12051A4313
:100C7000764B2D0513402B435B00E4075B082343B1
:100C800019001CBC90469946A246F0BD3E00164392
:100C900012D05E1E002E00D000E1871887428041EE
:100CA00041444042091801250B0233D5022585E74E
:100CB00064463300414610001D00C7E7002D00D0F8
:100CC000DAE00C000443F3D05C1C00D19FE15D4CE2
:100CD000A64200D12FE1DB43382B00DD66E11F2B5C
:100CE00000DD83E120240500E41A0F00DD40D94037
:100CF000A0404346A7405B1A441EA04198462F439C
:100D00003843171ABA42924143465242991A6446EE
:100D10003500CAE607223A40002A00D0F6E64B0723
:100D2000CA084849FF083B438D4296D11900114338
:100D300000D19EE1802109030A431203120B414DA9
:100D40008FE71500002200238BE7002B00D0C7E0BF
:100D50006B1C5F057F0D012F00DCF1E0394DAB42CC
:100D600000D1B9E085180A008542894142444942D0
:100D700051180722CF076D082F4349083A401D003C
:100D8000C2E607223049ED1A31403A40BCE63E0047
:100D90002838864000279FE63800FFF7F1FC203016
:100DA0008EE6434613431F007A1E9741C71BB84285
:100DB00080414042091A78E60E003B000643134387
:100DC000002D61D1002E00D0F4E0002B00D11BE1FA
:100DD00064463900100039E71A4FBB427AD033001D
:100DE000FFE630001F3DE840202B03D04021CB1A06
:100DF0009E4037437B1E9F41072207433A40002114
:100E0000002589E7171A4346BA42B641591A764275
:100E10008E1B64464EE61F2B00DDADE020264746C4
:100E2000F61AB740B9461700B246DF404E463E4379
:100E300037005646B240561EB24117434246DA408A
:100E40008918AEE6FF070000FFFF7FFFFFFF0F805E
:100E500020264746F61AB740B9461700B246DF408B
:100E60004E463E4337005646B240561EB2411743E7
:100E70004246DA40891A99E77F4CA6425BD080242B
:100E800024045B42214327E7002E0CD1002B00D124
:100E9000CBE0644639001000774DD7E6764FBB4271
:100EA00018D0330075E6002B14D04B07C008184348
:100EB0008023C9081B03194207D0FC081C4204D137
:100EC0007907D0080843E14621004C46420FC9008B
:100ED0001143C000684DB9E61D0000220023C0E6A2
:100EE000002D5BD10D00054300D1E2E65D1C00D171
:100EF000B0E0614DAE421FD0DB43382B71DC1F2BBD
:100F000000DD96E020250F00ED1AAF40B94607003E
:100F1000AA46DF404D463D432F005546A840D940E4
:100F2000451EA84188440743BF1897429241514249
:100F3000414435003AE6644635004146100085E6F6
:100F40000B000343002D00D063E6002BF5D0434691
:100F5000134300D17AE68718874280410722414433
:100F6000404209183A400B0200D4D5E6434B013504
:100F70001940C9E5380069E61E004746203EF740A3
:100F8000BC46202B04D04026F31A46469E403243EE
:100F9000170063467A1E97411F4302E6364DAE4264
:100FA000CAD080252D045B422943A6E70843411E91
:100FB0008841A6E6002B00D148E6871A4346B8428E
:100FC000B641CB1A76429E1B33024BD5171A4346C5
:100FD000BA429241591A5242891A072264463A404B
:100FE00092E501430F00791E8F419DE71C000F0021
:100FF000203CE740202B03D04024E31A99400843CB
:10100000411E884138437CE60022002425E6171A59
:101010004346BA429241591A5242891A64463500EF
:1010200043E541461000144D10E6802200241203CF
:1010300080E61D000F00203DEF40BC46202B03D072
:101040004025EB1A9940084307006346781E874104
:101050001F4369E7871897429B4141445B42C91887
:101060003500A3E53B003343CED0072231003A40A0
:1010700052E600231A00F4E5FF070000FFFF7FFFA0
:10108000F0B55746DE464E464546E0B58346070076
:101090000E03480085B092461C00360B400DCD0F64
:1010A000002800D19DE0954B984239D08023F6006E
:1010B0001B041E43924A7B0F334399469446030018
:1010C0006344009300230026FF00029323031B0BBD
:1010D00098466300E40F52465B0D019400D1B3E0E3
:1010E00086498B4200D19EE04246D1008022120404
:1010F0000A435146490F11438B46814952468C465B
:1011000000996344CB1A0021D20000932B00634066
:101110009A460F2E00D905E17A4BB6009B599F469F
:101120005B463343994600D0B8E0022308260027E7
:1011300000900293CAE7CB463A0002990195019BC1
:101140009A46022927D0032900D180E2012944D000
:101150006D49009B8C4663441C00002C38DD53070E
:1011600000D013E2D2085B46DB0109D55946674B34
:1011700019408B468021C9008C46009B63441C00AB
:10118000634B9C4207DC5B4664055F075B021743C9
:101190001B0B620D02E000230027584A00211B03AD
:1011A0001C0B0B0D1B05234314055A4A3800134032
:1011B0001C4353466400DB0764081C43210005B050
:1011C0003CBC90469946A246AB46F0BD0122524235
:1011D00001231B1B382B00DCADE10022002300277C
:1011E000DCE75B46334399465ED0002E00D18AE1AE
:1011F0003000FFF7C5FA03000B3B1C2B00DD7BE141
:101200001D22D31A5A460100DA4008398E401300D5
:101210005F46334399468F403F4B00261B1A00938D
:101220000023029352E7414653460B433B499B46FA
:101230008C46009B634400935B46002B3BD102230A
:1012400000221E43022161E7434613439B4637D0E9
:101250004346002B00D162E14046FFF791FA0300BC
:101260000B3B1C2B00DD53E102004146083A914044
:1012700088461D21CB1A5146D9400B0041460B43ED
:101280009B46534693401A00009B25499C46604468
:1012900003008C4663440093002137E70323B146E3
:1012A00000900C26029311E70023009301330426DB
:1012B000002702930AE70323C3461E43032125E7C1
:1012C00001331E430022012120E700239A46802398
:1012D00000271B03094A61E7802349461B03194283
:1012E00000D1E2E05946194200D0DEE00B431B0377
:1012F00017001B0BA246014A50E7C046FF0700003B
:1013000001FCFFFFE4740008FF030000FFFFFFFE85
:10131000FE070000FFFF0F800DFCFFFF01F8FFFF3D
:10132000F3030000D94500D9CBE000D1C6E03C0072
:1013300048460027009B013B00935B46160E1B02AC
:101340001E431302984633041B0C9946310C01913D
:10135000FEF760FF4A4642430B04210C0500194387
:101360008A4207D98919013D8E4203D88A4201D9A0
:10137000851E8919881A0199FEF74CFF09048C46CD
:101380004A46210464464243090C030021438A4231
:1013900004D98919013B8E4200D8F1E02D041D4388
:1013A000AB464346891A4246280C12041D0C5B4684
:1013B000140C22001B041B0C5A4303946B4344433C
:1013C000029568431B19150CEB189C4203D9802425
:1013D0006402A44660441C0C15041B042D0C201848
:1013E0005D19814277D373D00C1AA24A7D1BAF429C
:1013F000BF419446009B7F426344E01B1C00864231
:1014000000D1DBE00199FEF705FF4A4642430B0499
:10141000290C070019438A4207D98919013F8E42D6
:1014200003D88A4201D9871E8919881A0199FEF7C3
:10143000F1FE09044A46894629044D464243090CF7
:10144000030029438A4207D98919013B8E4203D8F8
:101450008A4201D9831E89193F04891A3A00039FE1
:101460001A43380013041B0C584381460298150C8C
:101470006F43434345434846000C8446DB196344AD
:101480009F4203D9802040028446654448461F0C91
:1014900000041B04000C7D191818A94200D284E036
:1014A00000D17FE001231A4357E680234A461B03FD
:1014B00013431B031B0BAA466F4A6FE6BA4200D9BF
:1014C00035E74B46DC0758087B081C43FF0734E729
:1014D0000024AF4289D247444745A4415B46644259
:1014E000A4196418013BA6421ED2A0426DD800D1B7
:1014F000B6E0241A9B4678E703005A46283B9A40F8
:101500000027914688E65846FFF73AF9203072E600
:1015100003005246283B9A4093460022B4E65046C8
:10152000FFF72EF920309AE6A642E2D1B845DCD981
:10153000341A9B4659E71F2B65DC504C0099A44692
:101540005C46614408008C4011008240D940501E26
:1015500082410C4314435A46DA401300620709D013
:101560000F222240042A05D02200141D94428941F2
:1015700049425B181A0262D50122002300270DE6BA
:101580008A4200D80AE7831E891907E70F23134010
:10159000042B00D1E6E5171D9742924153429B442C
:1015A000FA08E0E5002800D1D7E57118531EB142D2
:1015B00027D3A94215D358D01A0073E7002B00DCBB
:1015C00004E6012300229B44CDE50223474447451E
:1015D00089415B429C46494289190C19E344241A0B
:1015E00003E743465F0047459B41B8465B429E196F
:1015F000023A8919A94200D054E7404500D051E78A
:10160000ABE51A00F6E71F215F4649420C1BE74095
:10161000202B07D01A49009B8C46634418005B4678
:1016200083401A43501E82413A4307270023174044
:1016300009D00F21002311401400042995D1220064
:101640005F075B021B0BD20817430022A6E580232D
:1016500059461B030B431B0317001B0B064A9DE552
:10166000BD42B2D89B460024BFE68045B9D31A00DC
:10167000C3E7C046FF030000FF0700001E04000090
:101680003E040000F0B54F464646D6468446C0B5F7
:101690008046194E18030F034D00000B5C00824674
:1016A0003F0B6D0DC90F9146640DDB0F0120B54254
:1016B0000AD0B44203D0A54201D157450CD01CBC7E
:1016C00090469946A246F0BD66463E43F7D1AC42ED
:1016D000F5D154461443F2D10120C845EFD19942C7
:1016E00007D0002DEBD163461F433800471EB84199
:1016F000E5E70020E3E7C046FF070000F0B54F46EE
:101700004646D6464D00C0B50E03C90F8A462C4941
:101710001F035C008046360B6D0D91463F0B640D38
:10172000DB0F8D421ED08C4216D0002D1ED13043CF
:101730008446002C01D13A4323D06246002A1AD0B5
:101740009A4529D0514602200139084001381CBC75
:1017500090469946A246F0BD39001143E5D00220DB
:101760004042F4E73043FAD1AC420FD0002C0FD105
:101770003A43E7D00CE00122013B934318000130CB
:10178000E5E763460020002BE1D0DBE73A43E6D1F2
:101790009A45D7D1A542D5DCA54205DBBE42D1D8BA
:1017A00008D00020BE42D2D25046012301389843CF
:1017B0000130CCE7C845C5D80020C845F4D3C6E7FA
:1017C000FF070000F0B54F464646D6464D00C0B56F
:1017D0000E03C90F8A462E491F035C008046360B54
:1017E0006D0D91463F0B640DDB0F8D4218D08C427E
:1017F00011D0002D18D130438446002C1ED13A431D
:101800001CD163460020002B30D051460220013904
:10181000084001382AE039001143EAD0022025E0CF
:101820003043FBD1AC4226D0002C26D13A4324D100
:101830005146022001390840013817E06246002A6B
:101840000FD09A45E1D1A54205DBBE42DDD819D0C3
:101850000020BE420AD2504601230138984301308D
:1018600004E00122013B9343180001301CBC904668
:101870009946A246F0BD3A43D0D19A45C5D1A5427A
:10188000C3DCE0E7C845C0D80020C845E3D3EDE796
:10189000FF070000F0B55746DE464E464546E0B528
:1018A000834606000F03480087B092461D003F0B99
:1018B000400DCC0F002800D16FE0DE4B984238D0AD
:1018C0008023FF001B041F43730F3B430193DA4B3C
:1018D0000027994600239B46F60081442B036900AC
:1018E0001B0B52469846490DED0F002900D185E0AB
:1018F000D04B994200D173E04346DA0080231B04A9
:1019000013435246CC48520F84461343524600209C
:101910006144D20089442100694000918C46012134
:1019200049448A460F2F00D990E0C449BF00CF59DF
:10193000BF465B463B43019300D06AE10223082780
:10194000002681469B46C9E732005846019B614606
:101950000091022800D175E0032800D1FEE10128A2
:1019600000D02CE100230027002600253F032A0D8C
:101970003F0BB34812053A4302401B051343009A3C
:101980005B00D1075B080B433000190007B03CBC7B
:1019900090469946A246AB46F0BD5B463B43019359
:1019A00000D12FE1002F00D1A5E13800FEF7E8FEBD
:1019B00003000B3B1C2B00DD96E11D22D31A5A4677
:1019C0000100DA405E4608398F4013008E403B43E9
:1019D00001939C4B00271B1A994600239B467DE7E9
:1019E000414653460B4393498C46E144002B00D0BB
:1019F0001AE102220220174300228CE7134300D190
:101A00000DE14346002B00D181E14046FEF7B8FED0
:101A100002000B3A1C2A00DD72E10100434608393E
:101A20008B4098461D239A1A5346D3401A004346CA
:101A3000134352468A404946081A824989468144DE
:101A4000002068E77B4B002700268EE7140C120469
:101A5000120C1100370C3604350C794328008C46E3
:101A60002E0060436044834656432100300C80467C
:101A70005846794340440291844506D988468021DE
:101A800049028C46E044414602913604010C360C72
:101A900000048B4681191E0C1B041B0C03911900BA
:101AA00079438C46280075436544A8465843050C85
:101AB00045447743A94203D9802149028C466744B3
:101AC000290C8C4639000004000C2D042D186144AB
:101AD000AB4405915946049101990F043F0C080C41
:101AE000390051434243904602008C46090C8B4614
:101AF00062437C4344445C44A04503D980214902AD
:101B000088464244210C884661460904090C8C46EB
:101B100039005943434370437E430F0CF6182404A5
:101B2000BE19644442448C46B34203D980235B020D
:101B300098464044029B61469846049B37044344C0
:101B40009B46AB45AD416B420D0405992D0C8C466F
:101B50007F196744FD18A8465D462D19A542A4418A
:101B600093466442A446C344DC448F42BF41984537
:101B70009B4193459241A445A4415B427F421F4350
:101B8000360C52426442BF192243BF1862463818CD
:101B90004302D20D039913436A020A43501E824145
:101BA0006146ED0D2A434E023243D90100D4B3E021
:101BB0000126500832400243DE0732435B08224CC4
:101BC0005444002C62DD510709D00F201040042836
:101BD00005D0101D9042924152429B180200D9013B
:101BE00004D580241948E400034054441848844232
:101BF00000DD27E75E075B02D2081F0B6305164373
:101C00005B0DB2E6002399460133042700269B466C
:101C100064E60323019781460C279B465EE601227A
:101C200001201743002276E6032303201F43434687
:101C300071E6C046FF07000001FCFFFF24750008A5
:101C4000FFFF0F800DFCFFFFFF030000FFFFFFFE03
:101C5000FE0700000023802700933F030026434B2C
:101C600083E6019B3200A446584670E6AC466EE619
:101C7000802701993F0339422DD03B422BD11F438E
:101C80003F033F0B00951600384B6EE601252D1BD8
:101C9000382D00DD66E61F2D40DC35481C00504421
:101CA000160082408440EE40501E8241344314436B
:101CB000EB40620709D00F222240042A05D02200FF
:101CC000141D9442804140421B181A023ED5012344
:101CD0000027002649E68027019B3F031F433F035F
:101CE0003F0B0094214B40E603005A46283B9A40A4
:101CF000002601926DE65846FEF742FD203057E679
:101D000003005246283B9A401300002293E65046B7
:101D1000FEF736FD20307BE6CA4650E71F201E0046
:101D20004042041BE640202D03D0124C5444A340F3
:101D30001A43501E8241324307260027164009D01D
:101D40000F200023104014000428B9D122005E07A0
:101D50005B021F0BD2081643002306E680273F03D1
:101D60001F433F033F0B1600004BFEE5FF0700003B
:101D70001E0400003E040000F8B557464E46454696
:101D8000DE460C000903E0B5490A460F5F00314307
:101D90001E03DB0F760A9B46530F3343C84E650084
:101DA000C000E40FD2006D0DA24681467F0D9C4617
:101DB0009046B74200D1B9E05B46012673409B468E
:101DC000EE1BA34500D183E0002E63DD002F00D081
:101DD000B1E06346134300D123E1731E002B00D012
:101DE000BAE1861A6346B04280410125C91A4042D1
:101DF000091A0B0200D447E149024B0A98464346B0
:101E0000002B00D189E14046FEF7BAFC0300083BF5
:101E10001F2B00DD7CE120223000D21A4146D04049
:101E2000994002009E400A439D4200DD6AE15D1B2D
:101E30006B1C1F2B00DD94E1202110003500C91A16
:101E40008E40DA408840DD40711E8E41110007222D
:101E50002843002506433240002A09D00F2333408F
:101E6000042B05D0331DB342B641764289191E00BA
:101E70000B0200D43DE26A1C914B55056D0D9A4250
:101E800000D119E18F4AF6080A405707520237433A
:101E9000120B9BE0002E00D0C5E06E1C7605760D7F
:101EA000012E00DC48E16746861ACB1BB042BF41D9
:101EB0007F42B8461F004346FF1A3B00B8461B024C
:101EC00000D55FE137439AD100220024002579E054
:101ED000002E00DCFAE0002F00D18DE0784B9D420F
:101EE00067D0802367461B041F43BC46382E00DCA6
:101EF00052E1634613435A1E93411E1886428041A5
:101F0000404209180B0200D4BEE06D4B01359D42E2
:101F100000D1D2E06B4A73080A4001210E401E43F3
:101F20005108D30707221E43324095E71E0016438F
:101F300000D045E740E7624B9D423AD08023674698
:101F40001B041F43BC46382E00DDEBE01F2E00DCD7
:101F50003AE133006746203BDF403B00202E05D0AE
:101F60004027BF1B6646BE40324390464646721E1F
:101F700096413343DAE0002B00D114E26346134369
:101F800000D168E180234E07C008C9081B0306433F
:101F9000194208D06046C008184204D163460100C7
:101FA000D2085E071643F3009946C900720F444DEC
:101FB00011434B46DE08424B4F073743CA089D4248
:101FC00000D16EE012036D05120B6D0D002112039E
:101FD000130B0A0D12051A433B4B2D0513402B43DF
:101FE0005B00E4075B082343380019003CBC9046C3
:101FF0009946A246AB46F8BD6346134311D0731E03
:10200000002B00D007E1861886428041614440429F
:10201000091801250B0237D502257BE73E006146F2
:1020200091463500C5E75C46002D00D0E1E00B008D
:102030000343F3D0731C00D1ACE1214B9F4200D18C
:102040003AE1F343382B00DD6FE11F2B00DD8CE11B
:1020500020250E00ED1AAE40B0460600AA46DE402E
:10206000454635432E005546D940A8406346451E97
:10207000A8415B1A9C463043161AB242924163460D
:102080005242991A3D00B4E607223240002A00D09D
:10209000E4E60B4BF6084F073743CA089D4200D0D1
:1020A00090E73B00134300D1A6E180231B031A43B2
:1020B0001203120B024D89E715000022002785E765
:1020C000FF070000FFFF7FFFFFFF0F80002E00D003
:1020D000C7E06B1C5E05760D012E00DCF0E0C84DFC
:1020E000AB4200D1B9E085180A00854289416244BB
:1020F000494251180722CE076D082E434908324045
:102100001D00A9E6BF49ED1A114007223240A3E69F
:10211000320028388240002686E63000FEF730FB89
:10212000203073E6634613435A1E9341C61AB042E9
:1021300080414042091A5CE60E0067460643174399
:10214000002D5ED1002E00D0F3E0002F00D11EE163
:102150005C46614691462CE7A94FBE427BD01E00EB
:10216000F1E610001F3DE840202B03D04021CB1AA0
:102170009A401643731E9E410722064332400021B7
:10218000002583E7161A6346B2428041591A40423D
:102190000B1A98465C4632E61F2E00DDABE0202786
:1021A000BB1B9A4663465746BB40994613004F46B1
:1021B000F3401F433B005746BA40571EBA411343F2
:1021C0006246F240891898E62027BB1B9A46634670
:1021D0005746BB40994613004F46F3401F433B0010
:1021E0005746BA40571EBA4113436246F240891A15
:1021F0009CE7834B9F425FD080252D047342294387
:1022000020E7002E0CD1002F00D1D0E05C466146C3
:1022100091467B4DCDE67A4FBE421CD01E0065E64E
:10222000002F18D0C0084E0706438020C9080003BD
:10223000014208D06346DC08044204D12100DA469A
:10224000D2085E071643F300994601245346C9009D
:10225000720F11431C406A4DABE61D00002200279F
:10226000B4E6002D59D10B00034300D1D6E6731C10
:1022700000D1B2E0624B9F421ED0F343382B6FDC9B
:102280001F2B00DD97E020250E00ED1AAE40B04672
:102290000600AA46DE40454635432E005546A84076
:1022A000D940451EA8418C440643B6189642924137
:1022B000514261443D0025E63D006146914678E685
:1022C0000B000343002D00D055E6002BF5D06346EC
:1022D000134300D16DE68618864280416144404236
:1022E000091800220B0200D4D0E6464B01351940F4
:1022F000B2E5B1465DE633006746203BDF403B0078
:10230000202E05D04027BF1B6646BE403243904674
:102310004646721E96413343EFE5394B9F42CBD080
:1023200080252D0473422943A8E70843411E8841B4
:10233000A2E6002F00D13CE66346861ACF1AB042CF
:102340009B415B42FB1A98461B024ED5161A634608
:10235000B2429241591A5242891A5C4600227BE5E8
:1023600001430E00711E8E419FE71D000E00203DAF
:10237000EE40B046202B04D04025EB1A994008438C
:10238000814648464346411E8841184374E6002270
:10239000002417E6161A6346B2429241591A524275
:1023A000891A3D0025E561469146154D01E68022DA
:1023B0000024120379E61D000E00203DEE40B046D9
:1023C000202B04D04025EB1A9940084381464E4605
:1023D0004346711E8E411E4367E7861896429B4115
:1023E00061445B42C9183D008CE547463743CED077
:1023F00007224146324049E600273A00E6E5C0465A
:10240000FF070000FFFF7FFF70B50C4E0D031C039C
:1024100049005B002D0B490D240B5B0DB14208D028
:10242000064900208B4203D114432000441EA041E2
:1024300070BD05430120002DFAD1F1E7FF07000030
:1024400030B5144D0A034B00120B5B0DC90F00246D
:10245000AB4211DD104CA34210DC80246403224304
:102460000E4CE41A1F2C0CDD0D48C31ADA40130081
:102470005C42002900D11C00200030BD094BCC1863
:10248000FAE7094DE040AC4663449A401300034329
:10249000EEE7C046FE0300001D0400003304000008
:1024A00013040000FFFFFF7FEDFBFFFF70B5002866
:1024B0002DD0C317C5185D40C40F2800FEF760F982
:1024C000154B1B1A5B055B0D0A2815DD0B38854083
:1024D00000222D032D0B002110002D030A0D2D0BC2
:1024E00012052A430D4D1B052A4013435B00E407E8
:1024F0005B082343190070BD02002900153291408A
:102500000A000B21081AC5402D032D0BE3E7002418
:10251000002300250022DEE71E040000FFFF0F80DD
:1025200010B5041E25D0FEF72BF9144B1B1A5B05C2
:102530005B0D0A2812DD0B38844000222403240B93
:102540000021100024030A0D240B120522430C4C19
:102550001B05224013435B00590810BD02002100F7
:10256000153291400A000B21081AC4402403240BA1
:10257000E6E7002300240022E2E7C0461E04000034
:10258000FFFF0F8010B50400094B1868FA2189007D
:10259000FDF7BAFD00F006FB002801D0012010BDB8
:1025A000013000222100404200F0C2FA0020F6E78C
:1025B0000C00002010B5084A136840210B4313603B
:1025C0000020FFF7DFFF041E02D00124200010BD11
:1025D00002F0B4FCFAE7C04600200240024A136849
:1025E000013313607047C04620020020014B186879
:1025F0007047C0462002002070B50400FFF7F6FFC8
:102600000500631C00D00134FFF7F0FF401BA0421F
:10261000FAD370BD014B1868000C70470058014098
:10262000024B18680005000D7047C0460058014075
:1026300010B582B00400084B18680849FDF764FD26
:102640004443019402E0019B013B0193019B002B59
:10265000F9D102B010BDC0460C00002040420F006E
:1026600070B5041E00D1E0E0436D002B2ED0636DE9
:10267000DB0631D421688B6804221A402CD1636DAB
:102680006B4803400630FF300343636588680323CB
:102690000340012B29D06368C0200006834228D064
:1026A0008020C005834224D080200006834220D0B1
:1026B0000B699B009B080B615E4B19685E480140EB
:1026C000196019686068014319601BE08365502236
:1026D000835402F041FCCAE7636D10221343636523
:1026E00050230022E254012070BD0B68DB0713D495
:1026F000D1E70B699B009B080B6121680B6960683F
:1027000003430B612168CB6818208343CB602168A9
:10271000CB68A0680343CB60464B1968474801402B
:1027200019601968606B4006014319602368996855
:10273000C90004D498688021490501439960216843
:10274000CB683F480340CB602068C168E3682569D7
:10275000022D2DD013432022A25C520313432C22BE
:10276000A25C52001343226B1343A26992031343EA
:10277000E269D20313430B43C360636AC222FF3290
:10278000934205D02168CA68A06A03431343CB6013
:102790002123E35C012B0DD0E36B012B1ED02368BA
:1027A0001A69D2072DD51A6901218A431A6128E0D6
:1027B0000422CFE71F33E35C002B06D12268D168E7
:1027C00080235B020B43D360E6E7636D2022134353
:1027D0006365A36D1F3A1343A365DDE722681369A0
:1027E00018490B40136121680A69236C606C03432C
:1027F000A06C034313430B612268136901210B434F
:1028000013612268536907218B435361226853691E
:10281000A16B0B4353610023A365636D03229343B4
:10282000023A1343636500205EE701205CE7C0467F
:10283000FDFEFFFF08270140FFFFC3FFFFFFFFFD75
:102840001902FEFF03FCFFFF70B504000D005023CA
:10285000C35C012B4BD050230122C25403689A68F9
:1028600052071AD4234A4968914229D0996A2A68A2
:102870005203520B0A439A622B685B0316D42B68EF
:102880009B0305D51C4A11688023DB030B431360AF
:1028900050230022E254002070BD436D20221343D8
:1028A000436550230022C2540120F5E7124A116803
:1028B00080231B040B4313600A20FFF7B9FEDEE7F9
:1028C000996A2A685203520B914399622B685B0301
:1028D00004D5094A136809490B4013602B689B0310
:1028E000D6D5054A136806490B401360D0E702208D
:1028F000D2E7C0460110000008270140FFFF7FFF1C
:10290000FFFFBFFF30B583B0040000230193002810
:1029100000D1EAE003681B68002B00DAE7E021231E
:10292000C35C002B14D0236965691D43714A21687B
:10293000914218D0A369002B69D06F4A2168914257
:1029400035D0012B38D180239B011D4300205FE04F
:1029500020330022C254694A536B01210B43536355
:1029600002F042FBDFE7E268A1680A431543002B4F
:1029700005D0402B03D0502B01D0602BDAD1604B17
:10298000196A186A5F4A02431A62CB04D2D45E4BBA
:1029900018685E49FDF7B8FB5D4B5843019002E0B3
:1029A000019B013B0193019B002BF9D1C2E78023DE
:1029B0005B011D4300202BE0FFF732FE554B984290
:1029C0000ED0FFF72DFE544B984211D0FFF728FE92
:1029D000514B984214D080235B011D43002017E027
:1029E000FFF718FE80235B019842EAD101200FE037
:1029F000FFF710FE80235B019842E7D1012007E03A
:102A0000FFF708FE454B9842E5D1012000E0002089
:102A10002268394B9A4235D0136841490B401D4317
:102A2000156080235B0062689A4231D0324A136895
:102A30003C490B401360304B22689A422DD08023D2
:102A4000DB03E26991073FD0D20629D536498A686F
:102A50001A438A60E269920627D53349CA681A4345
:102A6000CA60314A5361E269920723D52E494A6808
:102A70001A434A60E269D20721D52B490A681343F9
:102A80000B6029E0136829490B401D431560C8E716
:102A9000194A11680B431360CDE780239B03D0E7ED
:102AA00021498A689A438A60D4E71F49CA689A43D1
:102AB000CA60D6E71C494A689A434A60DAE71A496D
:102AC0000A689A430A6007E0174A5168DB431940D5
:102AD000516011680B4013602123E35C002B02D18D
:102AE00021330122E25403B030BD0120FBE7012075
:102AF000F9E7C0461C0001401800014000100240E8
:102B000000000140011000000C00002080841E0025
:102B1000B80B000047040000170400000810000074
:102B20008748FFFFFFFEFFFF00040140CF6EFFFF5D
:102B300070B5002811DB8408134DC034A40062591D
:102B400003231840C000FC331E008640B2438901B5
:102B50000B4083401343635170BDC0B20F2202404B
:102B6000083A920806329200084BD3185D68032495
:102B70002040C000FF2214008440A54389010A4080
:102B800082402A435A60E7E700E100E000ED00E000
:102B90001F2318401E3B8340014A13607047C04604
:102BA00000E100E001380A4B98420FD8094A506012
:102BB0000948036A1B021B0AC02109060B43036272
:102BC0000023936007331360002070470120FCE767
:102BD000FFFFFF0010E000E000ED00E070B5041E14
:102BE0003DD005681F4BE8181421FDF78DFA8000D1
:102BF00060641D4B236425230222E2542B681B4A88
:102C00001A40A368E1680B4321690B4361690B43D8
:102C1000A1690B43E1690B43216A0B4313432B600A
:102C20008023DB01A2689A4210D0114B19681C2244
:102C3000656C15400F20A840814319601968606CCD
:102C400002406068904002000A431A600023E36378
:102C500025220121A154013AA354002070BD012076
:102C6000FCE7C046F8FFFDBF000002400F80FFFFF9
:102C7000A800024070B5036C1968046825681C231D
:102C8000426C134004229A40114214D06A0712D5B4
:102C900023689B0603D423680422934323601C22E9
:102CA000436C1A40016C042393404B60036B002B70
:102CB00000D0984770BD02229A4011421AD0AA074C
:102CC00018D523689B0606D423680A229343236001
:102CD0002523093AC2541C22436C1A40016C02237A
:102CE00093404B6024230022C254C36A002BE1D0DE
:102CF0009847DFE708229A401142DBD02B07D9D54D
:102D000023680E22934323600E32436C1A40016CF9
:102D100001231C0094404C60C36325228354233359
:102D20000022C254436B002BC4D09847C2E7000076
:102D3000F0B5C64600B5002338E0052600E00026C1
:102D4000AE4035003D430234A400534EA551534CD0
:102D500025684246D4432E0026404A68D20302D555
:102D6000424615432E004D4D2E606D682E002640C4
:102D70004A68920302D5424615432E00474D6E60C5
:102D8000AD682E0026404A68D20202D5424615435D
:102D90002E00424DAE60ED682C404A68920202D58A
:102DA00042462A4314003D4AD46001330A681400A5
:102DB000DC406DD001249C4022409046F5D04D6807
:102DC000022D01D0122D0ED1DD080835AD002F588F
:102DD00007261E40B6000F22B24097430A69B24050
:102DE00016003E432E504D686E1E012E03D9112D44
:102DF00001D0122D12D185685F000326BE40B54375
:102E00002E00CD68BD40354385604568A5434A68BE
:102E10001609012434409C402C43446007685E003E
:102E200003242500B540ED432F404A681440B440C8
:102E30003C430460C46825408C68B4402C43C460A3
:102E40004A68D200B1D5164D6C6B012634436C63D1
:102E50009C08A51CAD00104EAF5903251D40AD00C8
:102E60000F26AE40B743A026F605B04200D166E774
:102E70000C4EB04208D00C4EB04207D00B4EB042C0
:102E800000D15AE706265BE7012659E7022657E7F5
:102E900004BC9046F0BDC046000001400004014063
:102EA000001002400004005000080050001C0050B8
:102EB000002A01D1816270478161FCE703689A6949
:102EC000920701D500229A6203689A69D20703D457
:102ED0009A6901210A439A6170470000F0B5059C88
:102EE00005686868660D8027FF003740054E3E4341
:102EF000B0438905890D120411430B432343034357
:102F00006B60F0BDFF63FF0370B504000E00150099
:102F100003689B69DB0619D523689A69920617D462
:102F2000731CF9D0FFF762FB401BB04201D8002EA2
:102F3000F2D1636C2022134363644123E2540023E3
:102F40002232A354023AA35401201AE0002018E0D0
:102F50001022DA6123682025DD612000FFF7AEFF33
:102F60002268536807490B405360636C0422134383
:102F700063644123E55400233E32A354023AA35430
:102F8000012070BD00E800FE70B504000D001600C1
:102F900023689B699B071CD4320029002000FFF79F
:102FA000B3FF002817D16B1CF2D0FFF71FFB801B6B
:102FB000A84201D8002DEBD1636C20221343636437
:102FC0004123E25400232232A354023AA3540120A5
:102FD00000E0002070BD0120FCE7F8B506000C0001
:102FE00017001D0033689B6923401B1B5A42534145
:102FF000BB4216D16B1CF5D0FFF7F8FA069BC01A3E
:10300000A84201D8002DEDD1736C202213437364C4
:103010004123F25400232232B354023AB354012024
:1030200000E00020F8BD000070B582B0040016007A
:103030001D00DAB2174B00930023FFF74FFF079AEA
:1030400006992000FFF7A0FF00281ED1012D0ED108
:103050002368F6B29E62079B0093069B00224021E4
:103060002000FFF7BAFF002810D001200EE02368EF
:10307000320A9A62079A06992000FFF785FF002816
:1030800006D12368F6B29E62E5E7012002B070BD6A
:103090000120FBE70020008070B505000C00160041
:1030A0002B689B699B061AD4320021002800FFF789
:1030B0002BFF002815D1FFF799FA801BA04201D8F9
:1030C000002CEDD16B6C202213436B644123EA5436
:1030D00000232232AB54023AAB54012070BD0020D1
:1030E000FCE70120FAE7000070B504000D001600AF
:1030F00023689B695B0733D4320029002000FFF767
:1031000003FF00282ED123689A69920611D4FFF795
:103110006DFA801BA84201D8002DE9D1636C2022F2
:10312000134363644123E254013B0022E254012033
:1031300070BD9A69520702D5228D002AF8D120224B
:10314000DA6121684B68084803404B6000236364E0
:10315000412162542232A354023AA3540120E7E7EA
:103160000020E5E70120E3E700E800FE10B5041EBB
:1031700059D04123C35C002B43D041232422E25485
:103180002268136801218B4313602268274B616812
:103190000B4013612268936825490B409360E368F4
:1031A000012B34D0226884231B02A1680B43936057
:1031B000E368022B32D0226851681E4B0B435360E8
:1031C0002268D3681A490B40D360236962691343AC
:1031D000A269120221681343CB602268E369216A65
:1031E0000B4313602268136801210B431360002313
:1031F000636441221F31A15423630132A354002090
:1032000010BD40330022C25401F02AFFB5E7226806
:1032100080231B02A1680B439360C9E723688022C7
:1032200012015A60C7E70120EAE7C046FFFFFFF03E
:10323000FF7FFFFF00800002F0B585B0050003911D
:1032400017001E004123C35C202B00D099E02033DF
:10325000C35C012B00D197E040230122C254FFF749
:10326000C5F90400802100901923012209022800D9
:10327000FFF7B3FE002800D088E041232222EA5461
:103280000133123AEA5400236B646F626E856B63FC
:103290006B8D9BB2FF2B0BD9FF232B857F3B3F4AC6
:1032A00000925B04FF2203992800FFF717FE18E045
:1032B0006A8D92B22A858023D2B2384900919B044C
:1032C00003992800FFF70AFE0BE06A8D92B22A8567
:1032D0008023D2B2002100919B0403992800FFF7BC
:1032E000FDFD6B8D9BB2002B34D022000A99280083
:1032F000FFF7FAFE00284BD12B685B6A6A6A1370ED
:103300006B6A01336B622B8D013B9BB22B856A8DFF
:10331000013A92B26A856A8D92B2002AE1D0002BFE
:10332000DFD100940A9B002280212800FFF755FE80
:1033300000282FD16B8D9BB2FF2BC6D9FF232B8585
:103340007F3B002200925B04FF3203992800FFF7C5
:10335000C5FDC6E722000A992800FFF79DFE002858
:103360001AD12B682022DA6129684B680C4C234063
:103370004B604123EA5400232232AB54023AAB544F
:1033800000E0022005B0F0BD0220FBE70120F9E7D4
:103390000120F7E70120F5E70120F3E70024008092
:1033A00000E800FEF0B587B0040003910492059395
:1033B0000CAB20CB1F884123C35C202B00D0B5E091
:1033C000002D18D0002F16D04023C35C012B00D154
:1033D000AFE040230122C254FFF708F90600802124
:1033E00000901923012209022000FFF7F6FD0028B2
:1033F00006D001209BE080239B006364012096E0BF
:1034000041232222E25401331E32E254002363643A
:1034100065626785636301960E9B0093059B049A22
:1034200003992000FFF700FE00280FD1638D9BB2A7
:10343000FF2B10D9FF2323857F3B424A00925B0478
:10344000FF2203992000FFF749FD21E040230022DD
:10345000E25401206BE0628D92B222858023D2B2C9
:10346000384900919B0403992000FFF737FD0FE0D6
:10347000628D92B222858023D2B2002100919B04FA
:1034800003992000FFF72AFD638D9BB2002B36D0F5
:1034900000960E9B002204212000FFF79EFD0028CD
:1034A00049D123685B6A626A1370636A013363629D
:1034B000238D013B9BB22385628D013A92B26285D6
:1034C000628D92B2002ADFD0002BDDD100960E9BD8
:1034D000002280212000FFF780FD00282DD1638D80
:1034E0009BB2FF2BC4D9FF2323857F3B0022009290
:1034F0005B04FF3203992000FFF7F0FCC4E73200C1
:103500000E992000FFF7C8FD002818D1236820225B
:10351000DA6121684B680C4D2B404B604123E2542B
:1035200000232232A354023AA35400E0022007B041
:10353000F0BD0220FBE70120F9E70120F7E70120B9
:10354000F5E7C0460024008000E800FEF0B587B033
:103550000600039115001F00002305934133C35C4F
:10356000202B00D0A2E003689B691B0400D5A0E0DB
:103570004023C35C012B00D19DE040230122C254B3
:1035800001332332C25400234364F368012B18D063
:10359000039B9A05920DA0239B011343326853604D
:1035A000FFF724F804003268916920230B40591E6C
:1035B0008B41D9B2936910221A40531E9A41D3B25B
:1035C00012E0039B9A05920D3F4B1343E6E73268E6
:1035D000916920230B40591E8B41D9B29269102367
:1035E00013405A1E9341DBB20B4313D17B1CEED028
:1035F000FEF7FCFF001BB84201D8002FE7D12022C4
:103600004123F254736C1343736440230022F25439
:1036100001204CE033689B69DB0622D500943B0017
:10362000002220213000FFF7D8FC002847D1336862
:103630001022DA6133681032DA61059BAB4222D086
:10364000059B01330593059BAB429ED3202241236A
:10365000F254736C1343736440230022F25401202C
:1036600025E000943B00002220213000FFF7B5FC4C
:10367000002822D132682023D3614122B354203361
:103680000022F25413E0326851688023DB010B43BF
:10369000536000943B00002220213000FFF79DFC86
:1036A00000280ED133682022DA61C9E7022007B072
:1036B000F0BD0220FBE70220F9E70120F7E7012037
:1036C000F5E70120F3E7C04600200002F0B54123F2
:1036D000C35C202B20D12033C35C012B1ED040249F
:1036E000012202554125242343550668336893433C
:1036F0003360066833680A4F3B40336006683368BE
:103700001943316001680B6813430B602023435554
:1037100000230355002000E00220F0BD0220FCE75A
:10372000FFEFFFFFF0B54123C35C202B1ED12033F8
:10373000C35C012B1CD040240122025541252423C7
:103740004355066833689343336006683368094F0E
:103750003B4009021943316001680B6813430B6059
:103760002023435500230355002000E00220F0BD34
:103770000220FCE7FFF0FFFF10B5264BD9680C23B1
:103780000B40082B42D00C2B11D0042B09D0214B1D
:103790005A68520B072313400133802000029840DF
:1037A00010BD1C4B1B68DB0632D51B48F8E78A0CA2
:1037B0000F231340194AD05C890D032211400131B7
:1037C000144BDB68DB030DD4124B1B68DB0613D5EF
:1037D0004201121A93019B1ADB001B181802FCF716
:1037E00093FCDDE74201121A93019B1ADB001B18C0
:1037F0005802FCF789FCD3E74201121A93019B1A85
:10380000DB001B189802FCF77FFCC9E70448C7E7F8
:103810000448C5E70010024000093D00807400081C
:1038200000127A000024F400F0B583B0041E00D129
:1038300065E2C44BDA680C251540DA68802676020A
:1038400016400368DB0736D5082D2CD00C2D28D068
:10385000636880225202934255D0A022D202934242
:1038600058D0B84B1A68B8490A401A601A688021C3
:1038700049020A400192019A1A68B4490A401A6042
:103880006368002B52D0FEF7B1FE0700AD4B1B68FA
:103890009B0310D4FEF7AAFEC01B6428F6D90320B0
:1038A0002EE2002ED4D0A74B1B689B0303D5636880
:1038B000002B00D126E223689B076CD5E3689A06AB
:1038C00005D5A048026820210A4302608B43042DDD
:1038D0003CD00C2D38D0002B00D1AEE099490A68BD
:1038E0000920824313430B60FEF780FE0600954BD0
:1038F0001B685B0700D597E0FEF778FE801B022867
:10390000F5D90320FCE18F4A116880235B020B4349
:103910001360B5E78B4B19688022D2020A431A6004
:103920001968802252020A431A60A9E7FEF75EFE78
:103930000700844B1B689B03BDD5FEF757FEC01BD9
:103940006428F6D90320DBE1002EC4D17D4A126839
:10395000520702D5002B00D1D6E17A4E72687C491D
:103960000A40216909020A437260326809218A43C8
:1039700013433360FFF700FFF26812090F2313406F
:10398000744AD35CD840744B18600020FEF7FAFDEF
:10399000002800D0B4E12368DB062CD5002D5FD1D0
:1039A000684B1B689B0503D5A369002B00D1ADE1D3
:1039B000644A536869490B40216A0B43536053685A
:1039C0001B021B0AE16909060B435360236A590B6A
:1039D000013180231B028B40D16809090F220A4064
:1039E0005C498A5CD3405C4A13600020FEF7CAFD44
:1039F000002800D084E123681B077DD56369002B74
:103A000067D0504A136D01210B431365FEF7EEFD9D
:103A100006004C4B1B6D9B076ED4FEF7E7FD801B29
:103A20000228F6D903206BE146494B68484A134007
:103A30002269120213434B60ADE7424A1368012129
:103A40008B431360FEF7D2FD06003E4B1B685B07FD
:103A5000A1D5FEF7CBFD801B0228F6D903204FE14C
:103A6000A369002B22D0374A116880235B000B43E7
:103A70001360FEF7BBFD0600324B1B689B0506D4A6
:103A8000FEF7B4FD801B0228F6D9032038E12D4A49
:103A9000536832490B40216A0B43536053681B0241
:103AA0001B0AE16909060B435360A4E7254A136822
:103AB0002B490B401360FEF799FD0600214B1B6854
:103AC0009B0598D5FEF792FD801B0228F6D90320AE
:103AD00016E11C4A136D01218B431365FEF786FD29
:103AE0000600184B1B6D9B0706D5FEF77FFD801B5C
:103AF0000228F6D9032003E123685B0700D48CE099
:103B0000104B9B6BDB001BD40E4A916B80235B0533
:103B10000B4393630126134B1B68DB0526D5A36873
:103B200080225200934235D0002B4BD1054B1A6DA9
:103B30000B490A401A651A6D0B490A401A652FE0B5
:103B40000026E8E700100240FFFFFEFFFFFFFBFF3B
:103B5000FFE0FFFF8C7400080C000020FF1FFFFF38
:103B6000FFFEFFFF00700040FFFBFFFF6B4A116884
:103B700080235B000B431360FEF738FD0700674BA3
:103B80001B68DB05CBD4FEF731FDC01B6428F6D9DA
:103B90000320B5E0624A116D80235B000B4313657F
:103BA000A368002B28D0FEF721FD07005C4B1B6D9E
:103BB0009B0530D4FEF71AFDC01B5A4B9842F5D92D
:103BC00003209DE0A022D200934209D0544B1A6DED
:103BD00055490A401A651A6D54490A401A65DFE7CB
:103BE0004F4B196D013AFF3A0A431A65196D80224D
:103BF00052000A431A65D3E7FEF7F8FC0700484B6A
:103C00001B6D9B0507D5FEF7F1FCC01B454B984289
:103C1000F5D9032074E0012E1AD0636A002B00D17D
:103C200076E00C2D4FD0022B18D03D4A1368404946
:103C30000B401360FEF7DAFC0400394B1B689B0154
:103C40003FD5FEF7D3FC001B0228F6D9032057E02E
:103C5000334A936B37490B409363DEE7304A13686E
:103C600033490B401360FEF7C1FC05002C4B1B6869
:103C70009B0106D5FEF7BAFC401B0228F6D90320AB
:103C80003EE02749CB682C4A1340A26AE06A02430F
:103C9000206B02431343CB600A6880235B04134309
:103CA0000B60FEF7A3FC04001D4B1B689B0106D4B0
:103CB000FEF79CFC001B0228F6D9032020E0002020
:103CC0001EE000201CE0012B24D0154BDA68802375
:103CD0005B021340A16A8B4201D0012010E0F02367
:103CE0009B031340E16A8B4201D0012008E0C0230E
:103CF0001B041A40236B9A420ED0012000E00120E1
:103D000003B0F0BD0120FBE70120F9E70120F7E750
:103D10000020F5E70120F3E70020F1E70070004004
:103D20000010024088130000FFFEFFFFFFFBFFFFB3
:103D3000FFFFFFFEFFFFFFEFFFFF02FF70B5040074
:103D40000D00002800D1BAE05F4B1A680123134030
:103D50008B420BD25C490B68012293432B430B60CF
:103D60000B681A40AA4201D00120A9E023689B07F2
:103D700006D5564AD368F0218B43A1680B43D36024
:103D80002368DB0764D56368022B09D0032B29D095
:103D9000012B2DD04D4A1268920506D401208FE0E8
:103DA0004A4A1268920300D48BE04849CA6803204B
:103DB00082431343CB60FEF719FC06006368022BB5
:103DC0001CD0032B28D0012B34D0404BDB680C22B5
:103DD0001A423DD0FEF70AFC801B3D4B9842F4D9B5
:103DE00003206DE0394A12689201DED4012067E0B9
:103DF000364A12685207D8D4012061E0334BDA68A2
:103E00000C231340082B23D0FEF7F0FB801B304B14
:103E10009842F3D9032053E02C4BDA680C2313406B
:103E20000C2B15D0FEF7E2FB801B294B9842F3D9EF
:103E3000032045E0254BDA680C231340042B07D000
:103E4000FEF7D4FB801B224B9842F3D9032037E0C6
:103E50001D4B1A6801231340AB420BD91A490B685A
:103E6000012293432B430B600B681A40AA4201D0F6
:103E7000012025E023685B0706D5144AD36815495D
:103E80000B40E1680B43D36023681B0707D50F493C
:103E9000CB68114A13402269D2001343CB60FFF76D
:103EA0006BFC0A4BDA6812090F2313400B4AD35CF0
:103EB000D8400B4B18600020FEF764FB00E00120A7
:103EC00070BD0120FCE7C046002002400010024007
:103ED00088130000FFF8FFFFFFC7FFFF8C74000886
:103EE0000C000020014B18687047C0460C000020F1
:103EF00010B5FFF7F7FF044BDA68120A07231340E7
:103F0000024AD35CD84010BD001002409C740008E7
:103F100010B5FFF7E7FF044BDA68D20A0723134016
:103F2000024AD35CD84010BD001002409C740008C7
:103F300070B5040003689B064CD55B4B9B6BDB00A4
:103F400000D571E0584A916B80235B050B43936366
:103F50000125564B1B68DB0568D5534B1968C023F8
:103F60009B031940626813408B4206D0C0239B021A
:103F700011001940994200D16DE04B4B1B6DC021DF
:103F800089020B4015D00A409A4212D023689B0642
:103F90000FD5454B186D464A02401E6D802109031E
:103FA00031431965196D434E314019651A65C305D2
:103FB00058D46368C022920219001140914260D027
:103FC00039490B6DC02292026068024013430B65B1
:103FD000012D60D023689B0706D5334AD36C0C2192
:103FE0008B43A1680B43D36423685B0706D52E4A35
:103FF000D36C31490B40E1680B43D36423681B0742
:1040000006D5294AD36C2D490B4021690B43D36453
:1040100023681B0645D5244AD36C29490B406169A6
:104020000B43D364002070BD002592E71F4A11683E
:1040300080235B000B431360FEF7D8FA06001B4B8E
:104040001B68DB0500D588E7FEF7D0FA801B6428E3
:10405000F5D90320E7E7144B1B689B0300D48CE7DA
:104060000120E0E7FEF7C2FA06000F4B1B6D9B052F
:104070009FD4FEF7BBFA801B124B9842F5D9032060
:10408000D1E709490A6810480240C0208003034074
:1040900013430B6094E70A008B6B0C490B4093634E
:1040A00098E70020BFE7C0460010024000700040C3
:1040B000FFFFFCFFFFFFF7FFFFF3FFFFFFCFFFFF57
:1040C000FFFFF3FF88130000FFFFCFFFFFFFFFEFAD
:1040D00003688022D205904205D0124A904202D055
:1040E000114A904203D1702293434A6813438022BD
:1040F000D205904205D00B4A904202D00A4A904223
:1041000003D10A4A1340CA681343802293430A69C1
:10411000134303608B68C3620B68836201234361AE
:104120007047C0460008014000140140FFFCFFFF3B
:1041300030B5036A012293430362036A44688269CB
:104140007325AA430D682A430225AB438D682B4390
:10415000446082614A684263036230BD30B5036ADD
:10416000102293430362036A45688269084C144035
:104170000A68120222432024A3431C008B681B01FF
:104180002343456082614A688263036230BDC04652
:10419000FF8CFFFF30B5036A0A4A13400362036ACB
:1041A0004568C2697324A2430C682243064C1C4034
:1041B0008B681B0223434560C2614A68C263036285
:1041C00030BDC046FFFEFFFFFFFDFFFF30B5036AB5
:1041D0000A4A13400362036A4568C269084C1440E6
:1041E0000A6812022243074C1C408B681B032343BE
:1041F0004560C2614A680264036230BDFFEFFFFFA1
:10420000FF8CFFFFFFDFFFFF70B5041E14D03923C2
:10421000C35C002B0AD0392502236355211D206879
:10422000FFF756FF01236355002070BD383300228D
:10423000C25400F045FFEEE70120F6E770B5040038
:104240000D003823C35C012B69D038230121C154F0
:1042500001330131C154042A37D019D9082A4AD070
:104260000C2A2AD129000068FFF7B0FF2268D16923
:1042700080231B010B43D3612268D36929490B407A
:10428000D3612168CB69EA6812021343CB6114E061
:10429000002A12D129000068FFF74AFF22689369BB
:1042A00008210B4393612268936904398B4393611E
:1042B00022689369E9680B43936139230122E25430
:1042C000013B0022E254002070BD29000068FFF786
:1042D00045FF2268916980231B010B43936122688B
:1042E000936910490B40936121688B69EA68120257
:1042F00013438B61E1E729000068FFF74BFF226859
:10430000D36908210B43D3612268D36904398B43F5
:10431000D3612268D369E9680B43D361CDE70220FA
:10432000D2E7C046FFFBFFFFF0B53823C35C012B8B
:104330001BD0382601239C46835539270133C355AA
:104340000268546893687025AC430D682C4380253F
:10435000AB431D004B682B43546002689360634677
:10436000C355002383550020F0BD0220FCE7000068
:10437000D0B504000168836802691343426913439E
:10438000C26913430A68B748024013430B602268AE
:104390005368B5490B40E1680B435360A16922683B
:1043A000B24B9A4201D0236A19439368B048034044
:1043B0000B4393602268AF4B9A4212D0AB4B9A42A8
:1043C00024D01023A9498A4240D080221202E169F8
:1043D000914276D0082B00D932E19B00A64AD358EF
:1043E0009F46A64BD96C0C230B40042B0AD005D951
:1043F000082B27D00C2B07D10823E3E7002B03D190
:104400000023DFE70423DDE71023DBE79B4BDB6CB6
:10441000C02109010B408021C9008B420ED009D96F
:10442000802109018B420FD0C02109018B4207D1A5
:104430000823C7E7002B03D10023C3E70423C1E708
:104440001023BFE70223BDE70223BBE7022B2DD0D9
:1044500007D9042B30D0082B00D0F4E080200002D4
:1044600007E0002B00D0EEE0FFF742FD002800D16E
:10447000EBE0626853009B18834200D9E7E0130326
:10448000834200D2E5E0070E0602500800218019A1
:1044900079410023FBF7C4FE794BC218794B9A424D
:1044A00000D9D8E02368D860002084E0734B1B68F3
:1044B000DB0604D47448DCE7FFF75EF9D6E77348FF
:1044C000D7E7082B62D89B00714AD3589F46FFF765
:1044D0000FFD400063685B08C0186168FBF714FEBD
:1044E00003041B0C00206B491A00103A8A4200D9C1
:1044F000B3E00F22190091435B08083A13400B43C5
:104500002268D36057E0FFF703FD400063685B0853
:10451000C0186168FBF7F8FD03041B0C0020E2E7FC
:10452000564B1B68DB060BD5636858085A4B9C46F4
:1045300060446168FBF7E8FD03041B0C0020D2E730
:1045400063685808554B9C4660446168FBF7DCFD86
:1045500003041B0C0020C6E7FFF70EF94000636858
:104560005B08C0186168FBF7CFFD03041B0C00203B
:10457000B9E76368580880235B029C466044616821
:10458000FBF7C2FD03041B0C0020ACE70120002355
:10459000A9E7FFF7ADFC63685B08C0186168FBF72B
:1045A000B3FD03041B0C00203A491A00103A8A425A
:1045B00055D82268D360002323666366D0BDFFF719
:1045C000A7FC63685B08C0186168FBF79DFD0304E6
:1045D0001B0C0020E8E7294B1B68DB060BD5636842
:1045E00058082A4B9C4660446168FBF78DFD030424
:1045F0001B0C0020D8E763685808234B9C46604496
:104600006168FBF781FD03041B0C0020CCE7FFF77A
:10461000B3F863685B08C0186168FBF775FD0304B5
:104620001B0C0020C0E76368580880231B029C46CF
:1046300060446168FBF768FD03041B0C0020B3E7CE
:1046400001200023B0E70120B5E70020B3E70120F7
:10465000B1E70120AFE70120ADE70120ABE7012082
:10466000A9E7C046F369FFEFFFCFFFFF0048004016
:10467000FFF4FFFF004400403874000800100240BF
:1046800000FDFFFFFFFC0F000024F40000093D00C7
:104690005C740008EFFF000000127A000048E80197
:1046A000436ADB0706D5026853682C490B40816AD0
:1046B0000B435360436A9B0706D502685368284939
:1046C0000B40C16A0B435360436A5B0706D502681F
:1046D000536824490B40016B0B435360436A1B072B
:1046E00006D50268536820490B40416B0B43536069
:1046F000436ADB0606D5026893681C490B40816B50
:104700000B439360436A9B0606D502689368184979
:104710000B40C16B0B439360436A5B060BD5026889
:10472000536814490B40016C0B43536080235B03B7
:10473000026C9A420AD0436A1B0606D50268536887
:104740000D490B40816C0B435360704702685368FE
:104750000A490B40416C0B435360ECE7FFFFFDFF40
:10476000FFFFFEFFFFFFFBFFFF7FFFFFFFEFFFFFEE
:10477000FFDFFFFFFFFFEFFFFFFFF7FFFFFF9FFFE1
:10478000F0B5C64600B506000C0017009846069D19
:104790003368DB6923401B1B5A425341BB421CD187
:1047A0006B1CF5D0FDF722FF4346C01AA84201D882
:1047B000002DEDD1326813680A490B40136032684E
:1047C0009368A331FF318B43936020237367B367F2
:1047D00050330022F254032000E0002004BC904635
:1047E000F0BDC0465FFEFFFFF0B585B004000E00CF
:1047F00017001D00436F202B5FD1002960D0002AD5
:1048000060D080235B0182689A4218D07023E35CF9
:10481000012B59D070230122E2540023E367213396
:104820006367FDF7E3FE03905023E7520233E7523C
:1048300080235B01A2689A4208D0002716E0036932
:10484000002BE3D1CB07E1D5012037E02369002B12
:1048500021D000270AE03B882268DB05DB0D93624C
:1048600002375222A35A013B9BB2A3525223E35A6E
:104870009BB2002B12D00095039B002280212000C8
:10488000FFF77EFF002821D1002EE4D03278236884
:104890009A620136E5E737000026E7E70095039BBB
:1048A000002240212000FFF76BFF002810D12023B9
:1048B000636750330022E25400E0022005B0F0BDEF
:1048C0000120FBE70120F9E70220F7E70320F5E7E5
:1048D0000320F3E730B583B004000023C367FDF77E
:1048E00085FE050023681B681B070CD423681B6822
:1048F0005B0715D420236367A36750330022E2547B
:10490000002003B030BD80210C4B00930300002237
:1049100089032000FFF734FF0028E7D00320F0E7E9
:104920008021064B00932B000022C9032000FFF7D3
:1049300027FF0028DED00320E3E7C046FFFFFF018A
:1049400010B5041E2ED0436F002B21D024236367A3
:104950002268136801218B4313602000FFF708FDD4
:10496000012814D0636A002B18D1226853680E49BD
:104970000B405360226893682A218B43936022681E
:10498000136829390B4313602000FFF7A3FF10BD04
:1049900070330022C25400F0DDFBD7E72000FFF7A0
:1049A0007FFEE2E70120F2E7FFB7FFFFF0B58DB031
:1049B000002801D0554B1860002901D0544B1960D4
:1049C000544B1988490089B2504B18680A230122B8
:1049D000FEF7BCFD002839D04E4CA2782188490052
:1049E00089B24A4F38680A260296052301934A4D38
:1049F0000095043BFEF7D6FC2188490089B238684F
:104A0000009605232A00FEF717FC63680E2B4ED094
:104A100024DD102B61D0122B37D13F4A9378517887
:104A200009020B431278120413431A00990303D5A9
:104A3000DB03DB0B394A9A18374B9A60344B186802
:104A400005230D223649FFF7CFFE1EE0304B1868D4
:104A50000A230E223349FFF7C7FEBDE70C2B14D102
:104A60002D4A53781278120213431A00190503D500
:104A70005B055B0D2C4A9A18274B9A60244B1868EB
:104A800005230F222949FFF7AFFE234B9A682849D7
:104A900004A801F0A5F804A8FBF79CFE82B21C4B09
:104AA0001868052304A9FFF79FFE0DB0F0BD1A4A50
:104AB00053781278120213431A00990403D5DB04C9
:104AC000DB0C1C4A9A18144B9A60114B186805238A
:104AD0000D221949FFF788FED7E70F4A537812785D
:104AE000120213431A00802109020B4203D05B0417
:104AF0005B0C124A9A18084B9A60054B18680523FC
:104B00000D220749FFF770FEBFE7C04628020020CC
:104B10002402002000000020FC0100200000FEFF15
:104B2000947500086475000800F8FFFF74750008AC
:104B3000A475000800E0FFFF847500080080FFFFF7
:104B400030B589B01422002103A800F0E3FB154B17
:104B5000D96A04221143D962D96A0A400092009AA4
:104B6000DA6A01242243DA62DA6A22400192019A67
:104B7000D96A02221143D962DB6A1A400292029B6F
:104B8000094D002208212800FEF792F9082303931B
:104B9000049400230593069303A92800FEF7C8F8A0
:104BA00009B030BD001002400004005000B583B0D1
:104BB000094A116B012319431163126B13400193CE
:104BC000019B002200210920FDF7B2FF0920FDF71B
:104BD000DFFF03B000BDC0460010024010B582B038
:104BE00008220021684600F095FB1C4C1C4B2360FA
:104BF0000023E3638022D2056260A360A3630122E5
:104C00002261E3601F32A3540132A3548022D200F8
:104C1000A26280226262543AA354283A62612363FA
:104C2000A3616363E3612000FDF71AFD0D4B009360
:104C300080235B01019369462000FDF705FE0A4BC6
:104C4000009369462000FDF7FFFD084B009369467D
:104C50002000FDF7F9FD02B010BDC046D8030020CA
:104C60000024014020000014400000188000001CB7
:104C700010B50748074B0360102303610023C3608E
:104C80008361436183604360C361FDF73BFE10BDF8
:104C9000800200201800014010B50848084B03604E
:104CA000202303610023C360836143610822826083
:104CB0004360C361FDF726FE10BDC046AC02002074
:104CC0001C00014010B50D4C0D4B23600D4B636073
:104CD0000023A3600122E26023616361A361E361B9
:104CE00023622000FEF742FA00212000FEF7EEFCCE
:104CF00000212000FEF716FD10BDC0463002002046
:104D000000540040380F300030B587B00822002131
:104D100004A800F0FFFA10220021684600F0FAFA19
:104D2000164C8023DB05236000256560A560E560E7
:104D3000256165612000FFF767FA0495059504A9D0
:104D40002000FFF7F1FA7023009301950295039577
:104D5000002269462000FFF771FA602300930822C1
:104D600069462000FFF76AFA0C2269462000FFF727
:104D700065FA200000F0B2F907B030BDD40200207F
:104D800010B50948094B0360E1235B02436000232F
:104D90008360C36003610C2242618361C36103626B
:104DA0004362FFF7CDFD10BD10030020004400401A
:104DB00010B598B0342200210BA800F0ABFA1422F1
:104DC000002106A800F0A6FA18220021684600F08B
:104DD000A1FA17490B68174A1A4080231B01134395
:104DE0000B6002230B9301220E920F320F92149349
:104DF000002415948023DB0216938023DB03179392
:104E00000BA8FEF711FD0F2306930C3B07930894A4
:104E100009940A94012106A8FEF790FF0A23009343
:104E2000029404946846FFF783F818B010BDC0469A
:104E300000700040FFE7FFFF70B58CB0FDF7BAFBD4
:104E4000FFF7B6FFFFF77CFEFFF7B0FEFFF7C6FEE9
:104E5000FFF70EFFFFF720FFFFF734FFFFF754FFC8
:104E6000FFF78EFF3EE02B4E052333702A4B198847
:104E7000490089B2294D0A230293083B0193331D4F
:104E80000093012305222800FEF78CFA7479337908
:104E90001B021C436405640D2000FBF7D5FBF621C3
:104EA0008905FBF79FFA1E4B186024091D4B1C60F7
:104EB000FBF714FC02000B001B4904A800F090FE55
:104EC00004A8FBF787FC82B2184C052304A9200034
:104ED000FFF78AFC21002800FFF768FDFA20400058
:104EE000FDF78AFB0A230C2211491048FFF77CFCCE
:104EF000094B1988490089B20A2301220748FEF7A5
:104F000025FB0028AFD10A230D220A490748FFF7E5
:104F10006BFCA8E7080200200800002030020020F7
:104F20002C0200207C020020D47500081003002011
:104F3000B4750008C475000870470000054B5A6B33
:104F400001210A435A63996B802252050A439A63EE
:104F50007047C0460010024010B586B0040014220D
:104F6000002101A800F0D6F91B4B22689A4201D01B
:104F700006B010BD194B596B802292000A435A6348
:104F8000D96A01221143D962DB6A1A400092009B60
:104F9000E0230193DD3B0293A02001A9C005FDF7AA
:104FA000C7FE0F480F4B0360002343608360C3605C
:104FB00080220261803242618022D2008261C3611C
:104FC0000362FDF70BFE002803D1054BE3649C62EE
:104FD000CEE7FFF7B1FFF8E70024014000100240E0
:104FE000900300200800024010B588B0040014228D
:104FF000002103A800F08EF92368164A934204D0DA
:10500000154A934213D008B010BD144AD16A012347
:105010001943D162D26A13400193019B0323039386
:105020000493A02003A9C005FDF782FEEBE70B4A1D
:10503000D16A01231943D162D26A13400293029BC1
:1050400018230393153B0493A02003A9C005FDF783
:105050006FFED8E7180001401C000140001002401C
:1050600010B586B004001422002101A800F052F906
:105070002268104B9A4201D006B010BD0E4CE26A75
:1050800002231A43E262E26A13400093009BC023AA
:105090000193AE3B0293113B0393032204920593C9
:1050A00001A90648FDF744FEA26B80239B0313432E
:1050B000A363E1E7005400400010024000040050E8
:1050C00002688023DB059A4200D07047024A936B46
:1050D00001210B439363F8E70010024030B589B01B
:1050E00004001422002103A800F014F92268802390
:1050F000DB059A4201D009B030BD144BDA6A0224B4
:105100002243DA62DA6A22400192019AD96A0122C4
:105110001143D962DB6A1A400292029B0323039374
:1051200004940525079503A90948FDF701FE80238E
:105130005B00039304940023059306930795A02036
:1051400003A9C005FDF7F4FDD5E7C04600100240F5
:105150000004005010B586B004001422002101A8FC
:1051600000F0D8F82268104B9A4201D006B010BD6A
:105170000E4B996B802292020A439A63D96A0122EC
:105180001143D962DB6A1A400092009B084B0193DD
:10519000022302930133049301330593A02001A954
:1051A000C005FDF7C5FDE1E70044004000100240E6
:1051B000048000007047FEE77047704710B5FDF7A8
:1051C0000DFA10BD10B50248FDF754FD10BDC046E4
:1051D0009003002010B503000B4A1268002A08D083
:1051E000094A1068C3186A46934206D8064A1360F3
:1051F00010BD054A05491160F2E700F061F80C2383
:10520000036001204042F3E7100200203804002030
:10521000104B1968802252000A431A60DA680E495E
:105220000A40DA601A680D490A401A609A6801213A
:105230008A439A601A680A490A401A60DA6809497A
:105240000A40DA6000221A61074B802212059A6038
:105250007047C046001002400C40FF88F6FFF6FE83
:10526000FFFFFBFFFFFF02FF00ED00E00D4885465A
:10527000002103E00C4B5B58435004310B480C4BAE
:1052800042189A42F6D30B4A02E00023136004321C
:10529000094B9A42F9D3FFF7BBFF00F017F8FFF76D
:1052A000CBFDFEE700200020507800080000002021
:1052B000E0010020E001002038040020FEE70000AB
:1052C000014B18687047C0461000002070B50026DA
:1052D0000C4D0D4C641BA410A64209D1002602F00F
:1052E0009FF80A4D0A4C641BA410A64205D170BD5C
:1052F000B300EB5898470136EEE7B300EB589847F8
:105300000136F2E748780008487800084878000835
:105310004C78000803001218934200D170471970AE
:105320000133F9E7F0B58BB014001D1E129953DA62
:10533000802424061B191D0014002D230B7020232C
:10534000149E03229E43462E07D03300453B59420C
:105350004B411099013ACB18109309AB049308AB59
:105360000393139B00920293109B220001932B0046
:1053700000F0DCFC0700472E02D1119BDB0724D58F
:10538000109BFB180793462E14D13B78302B0CD181
:105390000022002320002900FBF728FB002804D16D
:1053A0000123109A9B1A139A1360139B079A1B6888
:1053B000D31807930022002320002900FBF716FBD7
:1053C000302200280DD0079B09933800099B159ABD
:1053D000DB1B13600BB0F0BD0023AFE7591C099134
:1053E0001A70099B07998B42F8D3EEE7F0B5831C3E
:1053F00085B0019306000C0002702B23002901DA0E
:105400002D234C427370092C22DD02ABDD1D2000E0
:105410000A21FBF7D7FA6F1E3031397020000A21BC
:10542000FBF7EAF9040009280BDC023D3034019B4C
:105430002C7002AA07321800AA4204D8801B05B0BB
:10544000F0BD3D00E3E72A7801351A700133F0E73B
:105450003023E418B370301DF470EFE7F0B595B069
:105460000C000A920B931A9D099001F03FFA036811
:1054700018000C93FBF7AEF90023129323680E90EB
:105480000D930D99277E2B680722C90545D59B18DA
:1054900093431A0008322A601A685B68A264E364C6
:1054A0000122E56CA66C6B005B080F935242AC4B7B
:1054B00030000F99FCF7A8FF002830D10122A84B3B
:1054C000524230000F99FBF7A1FA002827D10022A1
:1054D000002330002900FBF78FFA002803D02300B7
:1054E0002D2243331A709F4D472F00D89E4D032322
:1054F00000260D9A236101339A4322600B9B13AA65
:10550000009321000A9B099800F0F4F9431C00D095
:1055100093E00120404215B0F0BD0733B8E73200F8
:105520002B0030002900FCF76FFF002804D08F4DBE
:10553000472FDCD88E4DDAE780230D996268DB00B7
:105540000B43511C43D10732626012AA002105921D
:1055500011AA0392232223600691019308A963688C
:1055600052180292009332002B0004970998FFF71B
:10557000D9FE20233A0005009A43472A07D1119B00
:10558000DA1C02DB6268934245DD023FFFB21199EB
:10559000652F25D8200001393A0050301191FFF7CE
:1055A00025FF129A060013182361012A02DC2268E3
:1055B000D20701D501332361232308AA9B181B7846
:1055C000002B9BD023002D2243331A7096E7672FC0
:1055D00000D176E1472FB8D1002AB6D10122B3E736
:1055E000662F19D1636800290CDD2161002B02D1DF
:1055F0002268D20702D501335B182361119B002674
:10560000A365D9E7002B03D101222168114200D004
:105610009A1C2261F2E76727119B129A934205DBDD
:1056200022682361D207E9D50133E6E70121002B87
:1056300001DC4918C91A5218EBE72268530508D44F
:1056400023692A000A9909980B9DA847431C29D170
:105650005FE7652F00D8E0E0A06CE16C002200233A
:10566000FBF7C4F9002834D00123424A0A9909986B
:105670000B9DA847431C00D14BE7119B129A934204
:1056800002DB2368DB070DD50B9D0E9B0C9A0A9954
:105690000998A8470025431C00D13AE7129B013B1B
:1056A000AB420ADC23689B0700D508E1139BE06846
:1056B000984200DB2FE718002DE7220001231A3261
:1056C0000A9909980B9EB047431C00D121E7013588
:1056D000E4E7119B002B2DDC0123264A0A99099847
:1056E0000B9EB047431C00D113E7119B002B05D143
:1056F000129B002B02D12368DB07D3D50B9E0E9B98
:105700000C9A0A990998B0470026431C00D100E77B
:10571000119B5B42B34201DC129B92E72200012302
:105720001A320A9909980B9FB847431C00D1F0E63A
:105730000136EDE7A36D129F9F4200DD1F00002F91
:1057400008DD3B002A000A9909980B9EB047431CCC
:1057500000D1DEE600230D93FB43DB170F9318E027
:10576000FFFFEF7FE8750008E4750008F07500089A
:10577000EC750008F4750008220001231A320A991A
:1057800009980B9EB047431C00D1C2E60D9B013324
:105790000D930F9BA66D0D9A3B40F31A9342EBDCE1
:1057A000119B129AAD19934210DB2368DB070DD4CD
:1057B000129F119BBE1BFF1AB74200DD3700002F5E
:1057C0000DDCFE43F31700250C931CE00E9B0C9A96
:1057D0000A9909980B9FB847431CE9D199E63B0009
:1057E0002A000A9909980B9DA847431CE9D190E625
:1057F000220001231A320A9909980B9EB047431CD4
:1058000000D186E60135119A129B0C999B1A3A0039
:105810000A409B1AAB42EBDC44E7129B012B02DCF3
:1058200001231A4232D001232A000A9909980B9FBA
:10583000B847431C00D16CE60E9B0C9A0A99099854
:105840000B9F0135B847431C00D162E6A06CE16CA8
:10585000129B00225F1E0023FBF7C8F83B000028C4
:1058600014D000250AE0220001231A320A9909986F
:105870000B9FB847431C00D14BE60135129B013BFF
:10588000AB42F0DC220033005032DBE62A000A99FA
:1058900009980B9DA847431CF4D13AE62200012346
:1058A00019320A9909980B9EB047431C00D130E683
:1058B0000135E368139A9B1AAB42EFDCF6E600254C
:1058C000F7E7002A00D189E60021069112A9059187
:1058D00011A90391232108A80918236001930092BC
:1058E0002B000497029132000998FFF71BFD050079
:1058F00045E6C046F7B5150001938A680B6900902C
:105900000C00934200DA130022002B60433212781D
:10591000002A01D001332B6023689B0602D52B6837
:1059200002332B60062723681F4027D02300433310
:105930001B785A1E93412268920630D422000199A6
:1059400043320098089EB047431C25D006232068A8
:105950002A68E16803400025042B03D18D1AEB432C
:10596000DB171D40A3682269934201DD9B1AED18E5
:105970000027BD4220D1002010E00137E3682A68EB
:105980009B1ABB42D2DD22000123193201990098F3
:10599000089EB047431CF0D101204042FEBD30209C
:1059A000E1184331087021005A1C45310978A218CA
:1059B000433202331170C1E7220001231A320199E8
:1059C0000098089EB047431CE6D00137D1E700009D
:1059D000F0B589B004920A00433205930390029215
:1059E0000A7E0C000E9B6E2A00D186E01FD8632A27
:1059F00033D008D8002A00D18CE0582A4DD0250099
:105A000042352A7030E0642A01D0692AF7D119683A
:105A100025680A1D280629D508681A60002803DAB7
:105A20002D23029A404213706B4E0A274FE0732ACF
:105A300074D008D86F2A1FD0702AE0D120220968BC
:105A40000A43226003E0752A16D0782AD7D12200B3
:105A5000782145321170614E22E025001A684235E6
:105A6000111D196013682B70012365E008681A6026
:105A70006906D3D500B2D1E719682568081D1860FA
:105A800008682E0605D5544E08276F2A1BD00A2712
:105A900019E06D06F7D580B2F5E745314E4E0A7034
:105AA00018682268011D00681960150621D5D30702
:105AB00002D520231A4322601027002803D1202377
:105AC00022689A4322602300002243331A706368DD
:105AD000A360002B58DB0422216891432160002839
